:0B1BFE009000A1EEF0A3EFF0A3EDF0CB
:101C0900E4A3F09000A4E0FFD39000A2E09F90002D
:101C1900A1E094004020C2949000A3E0FF7E00124E
:101C29001EC9D2949000A3E0FF7E00121EC9900045
:061C3900A4E004F080CDE0
:011C3F002282
:021F7E0000223F
:0D1F4B00D2A100D2A0121F7EC2A0021F7EF4
:0D1F5800C2A000D2A1121F7ED2A0021F7EE7
:101EB000C2A100300104C2A08002D2A000D2A112AF
:091EC0001F7EC2A100D2A0002285
:10000E00D2A1121F7E30A008C2A100121F58C32217
:05001E00C2A100D32285
:101DF500E4FEC2A100EF30E705D2A0008003C2A037
:101E050000D2A100EF25E0FF0EEEB408E5C2A10067
:031E1500D2A00058
:011E180022A7
:101D7E00C2A100D2A000E4FED2A100EF30A0054423
:101D8E0001FF800354FEFF00C2A100EEC394075072
:0A1D9E0004EF25E0FF0EEEB408DEAE
:011DA8002218
:101EF600C290D291D29200000000E580339201C2D6
:031F060092A201A3
:011F090022B5
:101E5E00121EF640FBC290C291C29200008F80000B
:0C1E6E00000000D29200000000C292228E
:101E9600121EF640FBD290C291C2928F80000000C3
:0A1EA60000D29200000000C2922258
:101CF300D2937F34121E5E7F057E00121EC97F3091
:101D0300121E5E7F057E00121EC97F0C121E5E7FAF
:101D1300057E00121EC97F01121E5E7F057E000232
:021D23001EC9D7
:101E1900EF70047F808016EFB401047F90800EEF8D
:101E2900B402047F888006EFB403027F98EF2DFF88
:031E3900021E5E28
:101CBD009000A7EBF0A3EAF0A3E9F09000A7E0FBFA
:101CCD00A3E0FAA3E0F9120577FFD39400401612B2
:101CDD001E969000A8E475F0011206467F017E0065
:061CED00121EC980D62280
:0C1F72007F01121E5E7F057E00021EC96A
:101DD0009000A2EDF0A3EBF0EF7003121F729000E1
:101DE000A2E0FFA3E0FD121E19A3E0FBA3E0FAA30B
:051DF000E0F9021CBD3A
:10141A00B3F5CABCBBAFCDEAB3C9A3A100D1B0BF73
:10142A00A8A1A3A1A300CDF8C2E7D2D1D6D0B6CF46
:10143A0000CDF8C2E7D2D1C1ACBDD300D1B0BFA8AC
:10144A00B3C9B9A60057694669CFECD3A6B3C9B9DF
:10145A00A60057694669CFECD3A6B3ACCAB100BFA0
:10146A00BFBDFCB2E2CEC23A00BFBFBDFCB2E2CE03
:10147A00C23A256300B2E2B5C3CCE5CEC2A3BA250F
:10148A00302E316600B2E2CEC2CAA7B0DCD6D8CBC3
:10149A00A2BFA800B2E2CEC2C9CFB4ABA1A3A1A396
:1014AA0000B2E2CEC2C9CFB4ABB3C9B9A600B2E2A8
:1014BA00CEC2C9CFB4ABCAA7B0DC00B8DFCEC2A1D6
:1014CA00A3A1A3A1A3A1A300CCEDBCD3D6D0A1A371
:1014DA00A1A3A1A300CCEDBCD3A1A3A1A3B3C9B975
:1014EA00A600CCEDBCD3A1A3A1A3CAA7B0DC00AAD5
:0314FA0055999968
:101AD100440013000000004100010046008CFFFF9C
:101AE100FFFFFFFF60220053BB0000000000000069
:101AF10000000000000000000000000000000000E5
:101B0100000000000000000000CC45001ADD0000CC
:101B110000EE4100520041001F0041005100410010
:021B21002000A2
:10073800121CF3121F2F121EE0121F3D121F727D92
:10074800017F01121E197BFF7A14791A121CBD7FD2
:10075800E87E03121EC9121F72900020E070400448
:10076800F09000A474FFF0A37414F0A37427F0E4CD
:10077800FBFDFF121DD090001FE09000A4700C74C8
:10078800FFF0A37414F0A37430800A74FFF0A3740C
:1007980014F0A3743BF0E4FB7D037F01121DD0E449
:1007A8009000A5F07B01A304F0A37400F0A3748C5F
:1007B800F07A0079787D60121A6490009FEFF070EB
:1007C800987B017A007941FF12183F90009FEFF063
:1007D80070879000207401F0E49000A0F09000A0D1
:1007E800E0FFC39410504774412FF582E43400F5BC
:1007F80083E0FF7B017A0079751217A9900075E0F4
:10080800FF9000A0E0FE25E02421F582E43400F505
:1008180083EFF0900076E0FFEE25E02422F582E4F5
:100828003400F583EFF09000A0E004F080AFE4908E
:1008380000A0F09000A0E0FF2421F582E43400F548
:1008480083E0FE74542FF582E43400F583EEF090D3
:1008580000A0E004F0E0B420DA7BFF7A1479F97F95
:1008680004121E7AE4900012F0900077F07F0AFEDE
:10087800121EC9D28C900052E064996009900077EA
:10088800E0C3940540EFC28C121F3D900052E06413
:1008980099703BF09000A474FFF0A37414F0A37453
:1008A80046F0E4FBFD7F01121DD09000A474FFF018
:1008B800A37414F0A3744FF0E4FB7D017F01121DB3
:1008C800D07B017A0079537F22121E7A803FE49010
:1008D8000052F09000A474FFF0A37414F0A37427DE
:1008E800F0E4FBFD7F01121DD09000A474FFF0A37B
:1008F8007414F0A3745CF0E4FB7D017F01121DD039
:100908007DE87F037E00121BFEE4020B70C2967D19
:10091800F47F017E00121BFE9000A474FFF0A37404
:1009280014F0A37469F0E4FB7D027F01121DD0E48A
:10093800900012F0900077F07F0AFE121EC9D28C48
:10094800900077E0C3940940030209EB7B017A0029
:1009580079171219E37B017A007917121B2490008A
:1009680013120689E4FFFE7D0A7C42900013E0F82A
:10097800A3E0F9A3E0FAA3E0FB12022460234021DC
:100988007F327E00121EC97B017A0079171219E3A3
:100998007B017A007917121B2490001312068980B4
:1009A80042900077E0FFC374399FFF900000F090F9
:1009B80000A474FFF0A37414F0A37473F0A3EFF011
:1009C8007B017A007902120CAF9000A47401F0A3A5
:1009D8007400F0A37402F0E4FB7D027F01121DD0C5
:1009E800020948C28C121F3DD2967DF47F017E0019
:1009F800121BFEE4FFFE7D0A7C42900013E0F8A380
:100A0800E0F9A3E0FAA3E0FB120224604640449018
:100A180000A474FFF0A37414F0A3747FF090001383
:100A2800E0FCA3E0FDA3E0FEA3E0FF9000A7120610
:100A3800897B017A007902120CAF9000A47401F04E
:100A4800A37400F0A37402F0E4FB7D027F01121D81
:100A5800D0805B9000A474FFF0A37414F0A3748F8B
:100A6800F0900013E0FCA3E0FDA3E0FEA3E0FF90FC
:100A780000A71206897B017A007902120CAF900058
:100A8800A47401F0A37400F0A37402F0E4FB7D02E7
:100A98007F01121DD07FD07E07121EC9E49000206E
:100AA800F090001312069500000000020761900004
:100AB800A07401F09000A0E0FF2416F582E4340051
:100AC800F583E0FE741A2FF582E43400F583EEF026
:100AD8009000A0E004F0E0B404DA7B017A00791A0F
:100AE8007F05121E7A9000A474FFF0A37414F0A37B
:100AF800749EF0E4FBFD7F01121DD0E4900012F01B
:100B0800900077F07F0AFE121EC9D28C900001E097
:100B18007009900077E0C3940240F1C28C121F3D27
:100B2800900001E0B4011D9000A474FFF0A37414B8
:100B3800F0A374ABF0E4FBFD7F01121DD0E490003C
:100B480001F0802B9000A474FFF0A37414F0A37438
:100B5800B8F0E4FBFD7F01121DD07DE87F037E0025
:100B6800121BFEE4900001F0900020F0020761E4FF
:100B7800FFFE7D167C42900013E0F8A3E0F9A3E0A5
:100B8800FAA3E0FB120224604C404A9000A474FFD0
:100B9800F0A37414F0A374C5F0E4FB7D017F011287
:100BA8001DD0E4900012F0900077F0C2957F0AFE05
:100BB800121EC9D28C30B314900077E0C39405504C
:100BC8000B7DE87F017E00121BFE80E9D295C28C66
:100BD800121F3D80179000A474FFF0A37414F0A3B3
:100BE80074D2F0E4FB7D017F01121DD09000131236
:100BF800069500000000900051E0FF60F9EFB40195
:100C08000F9000A474FFF0A37414F0A374DF801491
:100C1800900051E0B402179000A474FFF0A374147C
:100C2800F0A374ECF0E4FB7D017F01121DD0E49089
:100C38000051F07FD07E07121EC9E4900020F00218
:020C4800076142
:030023000212CAFC
:1012CA00C0E0C0F0C083C082C0D075D000C000C0EA
:1012DA0001C002C003C004C005C006C0077B017A72
:1012EA000079927F04121D5240030213FF9000926C
:1012FA00E064AA7025A3E06444701FA3E0FF64774A
:10130A007018A3E06F701390001FF09000A474FF90
:10131A00F0A37414F0A37430802C900092E064AAB5
:10132A007030A3E06444702AA3E0FF64887023A3AA
:10133A00E06F701E90001F04F09000A474FFF0A3E9
:10134A007414F0A3743BF0E4FB7D037F01121DD0FB
:10135A00801E900092E064AA7027A3E06455702171
:10136A00A3E0FFB4991BA3E0B50716900052EFF073
:10137A007E007F047D007B017A00799212070C803F
:10138A0074900092E0B4AA15A3E0B4BB10A3E0FFE6
:10139A00B4880AA3E0B50705900001803690009250
:1013AA00E0FFB4AA15A3E0B4BB10A3E0FEB4770A29
:1013BA00A3E0B506059000018038EFB4AA1A9000A0
:1013CA0093E0B46613A3E0FFB4880DA3E0B5070861
:1013DA009000517401F0801D900092E0B4AA16A307
:1013EA00E0B46611A3E0FFB4770BA3E0B50706905B
:1013FA0000517402F0D007D006D005D004D003D033
:10140A0002D001D000D0D0D082D083D0F0D0E03248
:03000B00021D25AE
:101D2500C0E0C083C082C0D0758CDB758AFF90008F
:101D350012E0C3946450028008900012E4F0900011
:0D1D450077E004F0D0D0D082D083D0E0321F
:1019E3009000A1EBF0A3EAF0A3E9F0121F4BE4FF90
:1019F300121DF512000E40037F00227F07121DF512
:101A030012000E40037F0022121F4B7F01121DF5AF
:101A1300C201121EB0121D7E9000A1E0FBA3E0FAEA
:101A2300A3E0F9EF120612C201121EB0121D7E903E
:101A330000A1E0FBA3E0FAA3E0F9900001EF120696
:101A430024D201121EB0121D7E9000A1E0FBA3E080
:101A5300FAA3E0F9900002EF120624121F587F0147
:011A63002260
:101B2400900001120590FF9000A1E4F0A3EFF0E013
:101B3400F8E4F0E89000A1F0120577FF9000A1E02E
:101B4400FEA3E04FFF9000A1EEF0FEA3EFF0FDAC8A
:101B540006EC1202A27B0A7AD779A3783C12011E02
:0B1B64007B337A13798878C312002DC0
:011B6F002253
:101C7F00D2A700C2A700D2A7007D0F7F01121C447C
:101C8F00007D3D7F11121C447D1E7F2D121C44E4EC
:101C9F00FD7F2C121C447D8D7F2A121C447D3E7FBC
:0E1CAF002B121C447D407F15121C447F002226
:101F1D007F14121BC1EF540370077D037F14121F32
:011F2D00654E
:011F2E002290
:070003007D037F14021F0FB3
:0D195B009000A9EFF0A3EBF0A3EAF0A3E9E0
:10196800121F0A7D077F0D121C447D037F14121F6E
:10197800659000A9E09000AFF09000CA7401F0A350
:10198800F0A37400F0A374AFF0A37401F0A3740083
:10199800F0A374ADF07A0079AF1210CDEF703990E2
:1019A80000ADE07004A3E06410702D9000AFE0FE7D
:1019B8009000AAE0FBA3E0FAA3E0F9EE1206129069
:1019C80000B0E0FE9000AAE0FBA3E0FAA3E0F990E3
:0A19D8000001EE12062480027FFEDB
:0119E20022E2
:0B14FD009000A9EBF0A3EAF0A3E9F0D7
:10150800E49000AD121F0AE4FD7F0D121C447D809B
:101518007F0E121F0F9000B07493F0A37420F09008
:1015280000CA7402F07B01A314F0A37400F0A37442
:10153800B0F0A3EBF0A37400F0A374AEF07A0079D6
:10154800B07F0C1210D19000ACEFF07058FC74B062
:101558002CF582E43400F583E0FE9000A9E0FBA3BB
:10156800E0FAA3E0F9AF048F82758300EE12062437
:101578009000ADE0FE74B02FF582E43400F583E00E
:10158800FDEE6D9000ADF00CECB404C274B02CF517
:1015980082E43400F583E0FF9000ADE06F600690D0
:1015A80000AC74FEF07D807F0E121F659000ACE0E9
:0115B800FF33
:0115B900220F
:0B15BA009000A9EBF0A3EAF0A3E9F019
:1015C5009000AE7493F0A37470F0E49000B4F0FC56
:1015D5009000A9E0FBA3E0FAA3E0F9AF048F8275C0
:1015E5008300120590FE74B02FF582E43400F58374
:1015F500EEF09000B4E0FE8F82758300120590FD39
:10160500EE6D9000B4F00CECB404C59000C4740108
:10161500F0A37400F0A374B5F07B017A0079AE7D78
:101625000712170C121F0B9000CA7409F0A374015E
:10163500F0A37400F0A374AEF0A37401F0A37400DA
:10164500F0A374ACF07A0079AE1210CDEF700F9064
:1016550000ACE07004A3E064187003FF80027FFE15
:011665002262
:0B1666009000ABEBF0A3EAF0A3E9F06A
:101671009000B4EFF0A3EDF0E4FF9000ABE0FBA32A
:10168100E0FAA3E0F98F82758300120590FE74B62B
:101691002FF582E43400F583EEF00FEFB406DBE4BE
:1016A100FF9000AEE0FBA3E0FAA3E0F98F8275831F
:1016B10000120590FE74BC2FF582E43400F583EE30
:1016C100F00FEFB406DB9000CA740CF0A37401F0C4
:1016D100A37400F0A374B4F0A37401F0A37400F038
:1016E100A374B2F07B017A0079B47F0E1210D1900D
:1016F10000B1EFF070097F08121BC1EF20E30690E3
:0A17010000B174FEF09000B1E0FFAB
:01170B0022BB
:0B183F009000A1EBF0A3EAF0A3E9F099
:10184A009000A67430F0A3EFF09000C47401F0A3E6
:10185A007400F0A374A8F07B017A0079A67D0212C5
:10186A00170C9000CA7404F0A37401F0A37400F07A
:10187A00A374A6F0A37401F0A37400F0A374A4F0F7
:10188A007B017A0079A67F0C1210D1EF7034900098
:10189A00A4E07004A3E064907028FE74A62EF5827A
:1018AA00E43400F583E0FD9000A1E0FBA3E0FAA395
:1018BA00E0F98E82758300ED1206240EEEB410DB79
:0418CA0080027FFE1B
:0118CE0022F7
:0410CD007B017F0C18
:1010D1009000C7EBF0A3EAF0A3E9F09000C6EFF0AF
:1010E1009000D174FEF0E4A3F0A3F0EF24F46010BB
:1010F10024FE70169000D27412F0A37410F0800ACE
:101101009000D27477F0A37430F09000D2E0448064
:10111100FD7F02121C447D807F04121F0F121C40B0
:101121007D807F0A121F65E49000D5F0A3F0900046
:10113100CAE0FF9000D5E0FCA3E0FDC39FEC940062
:1011410050289000C7E0FBA3E0FAA3E0F98D828C60
:1011510083120590FD7F09121C449000D6E004F033
:1011610070CC9000D5E004F080C49000C6E0FD7F13
:1011710001121C449000C6E0B40C077D807F0D1263
:101181001F659000D57407F0A374D0F07F04121B83
:10119100C19000D4EFF09000D6E024FFF09000D58C
:1011A100E034FFF0E07002A3E060119000D4E0FFB2
:1011B10020E0099000D3E0FEEF5E60D07D807F0DDE
:1011C100121F0F9000D5E07002A3E070030212BA63
:1011D1007F06121BC1EF541B60030212B49000D1B1
:1011E100F0A3E0FF9000D4E05F30E0069000D174FE
:1011F100FFF09000C6E0640C60030212BA7F0A128D
:101201001BC19000D4EFF07F0C121BC1EF5407FDFE
:1012110060299000D4E024FFFFE434FFFEEF78035F
:10122100C333CE33CED8F97C002DFFEC3EF99000CC
:10123100CEE0FBA3E0FAA3E0C980169000D4E075EC
:10124100F008A4FF9000CEE0FBA3E0FAA3E0F9E5EB
:10125100F08FF012065C9000D4E0700204F0900070
:10126100D4E0D3941240037412F0E49000D5F0A3BB
:10127100F09000D4E0FFC39000D6E09F9000D5E04D
:10128100940050357F09121BC19000CBE0FBA3E015
:10129100FAA3E0F99000D5E0FCA3E0F5828C83EF9E
:1012A1001206249000D6E004F070C69000D5E00448
:1012B100F080BE9000D174FEF07D807F0C121F651E
:0812C100121C409000D1E0FF77
:0112C9002202
:0E170C009000C0EBF0A3EAF0A3E9F0A3EDF02B
:10171A007D047F05121F0F121C407D807F0A121F55
:10172A0065E49000C7F09000C3E0FF9000C7E0FEB8
:10173A00C39F50219000C0E0FBA3E0FAA3E0F98E1A
:10174A0082758300120590FD7F09121C449000C720
:10175A00E004F080D17D037F01121C449000C7741D
:10176A00FFF07F05121BC19000C7E014F0E060048F
:10177A00EF30E2EE7F22121BC19000C4E0FBA3E02F
:10178A00FAA3E0F9EF1206127F21121BC19000C4DE
:0F179A00E0FBA3E0FAA3E0F9900001EF020624C0
:041C4000E4FD7F013F
:101C4400C2A4C2A2EF25E0547EFF7E08EF30E70372
:101C5400D38001C392A5D2A4EF25E0FFC2A4DEEC99
:101C64007E08ED30E703D38001C392A5D2A4ED250D
:0A1C7400E0FDC2A4DEECD2A2D2A46F
:011C7E002243
:061BBB00AC07AB05E4FEDF
:101BC100E4FEC2A4C2A2EF25E0547E4480FF7D085A
:101BD100EF30E703D38001C392A5D2A4EF25E0FF44
:101BE100C2A4DDEC7D08D2A4EE25E0FEA2A6E4337A
:0C1BF1004EFEC2A4DDF0D2A2D2A4AF06CA
:011BFD0022C5
:0D1F6500121BBBAE07AF04EB4EFD021C4487
:051F0A00F07D087F08D6
:0E1F0F00121BBBAE07AF04EBF45EFD021C44D8
:101B7000EF64417040121F0B7D3D7F11121C447DAC
:101B8000867F17121C447D7F7F26121C447D1E7F9A
:101B90002D121C44E4FD7F2C121C447D8D7F2A12E3
:101BA0001C447D3E7F2B121C447F017E00121E3C94
:0B1BB000121F1D80037FFF227F002218
:101E3C0075CBDC75CA0075CDDC75CC00D2CAEF1F32
:101E4C00AC0670011E4C600730CFFDC2CF80EFC2D4
:021E5C00CA2298
:0E1F2F00121C7F120003121F1D7F41021B7047
:101A64009000A4EDF09000A1EBF0A3EAF0A3E9F05C
:101A74007F5212195BEF6001229000A1E0FBA3E00A
:101A8400FAA3E0F91214FDEF6001229000A1E0FB3B
:101A9400A3E0FAA3E0F91215BAEF6001229000A4C2
:101AA400E0FFA3E0FD9000A1E0F9A3E0FAA3E09039
:101AB40000AEC9F0A3EAF0A3E9F09000A6E0FBA30E
:0C1AC400E0FAA3E0F9121666EF600122C0
:011AD00022F3
:1017A9009000A1EBF0A3EAF0A3E9F0EF540F900049
:1017B90001120624EF440F1206129000A1E0FBA3C8
:1017C900E0FAA3E0F9120577C4540F12061290004B
:1017D900A1E0FBA3E0FAA3E0F9120577FFE4D39FA8
:1017E900500AEFC3940A50047430800E740AD39FD0
:1017F900500BEFC39410500574371205BD9000A12A
:10180900E0FBA3E0FAA3E0F9900001120590FFE4E0
:10181900D39F500DEFC3940A500790000174308094
:1018290011740AD39F500EEFC39410500890000111
:0618390074371205DF22E6
:101EC9007D737C00ED1D70011C144C70F7EF1F70C1
:061ED900011E144E70EA28
:011EDF0022E0
:0E1F3D00438901758CDB758AFFD2AFD2A922D1
:101EE000438920758DFD758BFDD28EC29FD29ED207
:061EF0009CD2AFD2AC222F
:101E7A00C2ACEF6014120577F5993099FDC29974D6
:0C1E8A000129F9E43AFA1F80E9D2AC22E9
:101D5200E4FEE599120612E4FDC298EF14C3648012
:101D6200F8EE64809850130E740129F9E43AFA20CF
:0B1D720098E00DEDD3948240F622D3E0
:011D7D002243
:10002600020310E86480F8E933E83360110460F0F5
:10003600ED33EC337009E8FCE9FDEAFEEBFF220440
:1000460060DED3EB9FEA9EE99DE8C2E78CF0C2F73B
:1000560095F0400CE8CCF8E9CDF9EACEFAEBCFFB07
:100066001202DB85D0F05804700320D5B3E8047083
:10007600075002B2D502031A92D5EC0460F7E4CC1D
:10008600C0E0C398F8603B94186008400DD0E0FBD0
:100096000202F2E4FBFAC9FC8028E830E406E4C96F
:1000A600FBE4CAFCE830E305E4C9CACBFCE8540724
:1000B6006010F8C3E913F9EA13FAEB13FBEC13FC2F
:1000C600D8F130F52FC3E49CFCEF9BFFEE9AFEEDD2
:1000D60099FDD0E0FBEF4E4D4C701222DB0302037C
:1000E60017EC2CFCEF33FFEE33FEED33FDED30E77E
:1000F600EB0202F2EF2BFFEE3AFEED39FDD0E0FB0C
:1001060050130BBB000302031AED13FDEE13FEEFB3
:0801160013FFEC13FC0202F2DE
:10011E00EC4D6011E8497017ED33EC3304600DE4DB
:10012E00FCFFFEFD22E933E8330470F802031012DF
:10013E0002DB58046009E4CC2481500628500902E1
:10014E00031A284003020317C0E0EB4A7044B9803B
:10015E0006D0E0FB020306EF4E701CBD8008EBFFDD
:10016E00EAFEE9FD80EBE98DF0A4FEE5F002020760
:10017E00E9CDF9EAFEEBFFEF89F0A4FCE5F0CE89BC
:10018E00F0A42EFFE435F0CD89F0A42DFEE435F079
:10019E008067EF4E7005BD80D780C3EF8BF0A4ACA7
:1001AE00F0EE8BF0A42CFCE435F0F8EF8AF0A42CE2
:1001BE00E5F038FCE433CB8DF0A42CFCE5F03BF8F5
:1001CE00EE8AF0A42CFCE5F038F8E433CF89F0A4E5
:1001DE002CFCE5F038CF3400CE89F0A42FFFE5F0EB
:1001EE003EFEE433C98DF0A42EFEE5F039CD8AF043
:1001FE00A42FFFE5F03EFEE43DFD33D0E0FB5007BB
:10020E000BBB000F02031AEC2CFCEF33FFEE33FE98
:06021E00ED33FD0202F2C7
:1002240074F8CC6480CCC86480C8F58204604FC381
:10023400EB9FF5F0EA9E42F0E99D42F0E89C45F020
:10024400603C501DE5825FFFE582D313CB5BCBF4AA
:100254002B5582FB50280ABA002409B900200880D3
:100264001DE5825BFBE582D313CF5FCFF4C3132F6D
:100274005582FF50090EBE00050DBD00010CC3EBF5
:100284009FF5F0EA9E42F0E99D42F0E89C45F0605B
:0902940007CC4820E701B3EC227D
:10029D0075F020800E75F010800575F0087D007EDC
:1002AD00007F003392D530D50312067BEC3340101E
:1002BD00EF33FFEE33FEED33FDEC33FCD5F0ED22E5
:0E02CD00E5F0247EA2D513CC92E7CDCEFF2221
:100C4A00E50824A4F582E43400F583E0050822903F
:100C5A0000A13008039000A4E475F0011206C60250
:100C6A0005772001E97F2ED2018018EF540F2490D6
:100C7A00D43440D4FF30050BEF24BFB41A0050031C
:100C8A002461FFE50960021509050CE50C700205EF
:100C9A000B30080E9000A1E475F0011206C6EF02AF
:100CAA000612021DA97403D2088003E4C208F508DB
:100CBA009000A11206DDE4F509F50BF50CE50960D3
:100CCA00077F20120C8D80F5750AFFC202C201C28D
:100CDA0003C204C206C207C209120C59FF700D30C2
:100CEA0008057F00120C9EAF0CAE0B22B4255FC222
:100CFA00D5C205120C59FF24D0B40A00501A75F057
:100D0A000A780930D50508B6FF0106C6A426F620DA
:100D1A00D5047002D20480D924CFB41A00EF50044B
:100D2A00C2E5D205020F90D20280C6D20180C0D29B
:100D3A000380BCD2D580BAD20680B47F20120C8D33
:100D4A002003077401B5090040F1120C4AFF120C86
:100D5A008D020CC7D209D2078095120C4AFB120CDD
:100D6A004AFA120C4AF94A4B7006798E7A107BFFBE
:100D7A0020032EE509602A7E008E82758300120503
:100D8A009060060EEE650A70F0C2D5EBC0E0EAC0CC
:100D9A00E0E9C0E0EE120FF1D0E0F9D0E0FAD0E0DD
:100DAA00FB120577FF60AAEBC0E0EAC0E0E9C0E009
:100DBA00120C8DD0E02401F9D0E03400FAD0E0FB27
:100DCA00E50A0460DCD50AD98087D20380A2120F13
:100DDA00D360F7E50A700104120325A90A600DE53C
:100DEA000A600914F50A12107BEF60F3EA30E70291
:100DFA00F404C3995079EAF4250A0430E701E404BB
:100E0A00F50A800D120FD360C1EA050A250A1203FA
:100E1A0025EA9000D0F030E701E4250A04D50A0457
:100E2A0020060114120FF1E4C0E012107B9000D0EA
:100E3A00E0601320E70714F0120C75802204F0D04A
:100E4A00E014C0E07F00120C75E50A6007120C6C12
:100E5A00150A800B300603120C6CD0E0020CC7D0C6
:100E6A00E00480C4120FD3609EE50A0412032590A1
:100E7A0000D0EAF0E50A2006026001042404120FF9
:010E8A00F176
:100E8B0074FF04C0E012107B120C75E50A200602F9
:100E9B006003120C6CD0E0B50AE87F45120C7F9012
:100EAB0000D0E07F2B30E7047F2DF404C0E0120C60
:100EBB008DD0E075F00A84C0F0120C76D0E0120CE5
:100ECB0076020CC7791080027908C207C209800824
:100EDB00D2D5790A8004790AC2D5E50A047002F5E5
:100EEB000AE4FAFDFEFF120C4AFC7B0820021312E7
:100EFB000C4AFD7B1030010A120C4AFE120C4AFF01
:100F0B007B20EC3382D592D55013C3E43001069F7E
:100F1B00FFE49EFEE42002039DFDE49CFCE4CBF881
:100F2B00C202EC700CCFCECDCCE824F8F870F38075
:100F3B0017C3EF33FFEE33FEED33FDEC33FCEB3336
:100F4B00FB994002FB0FD8E9EB300205F8D0E0C467
:100F5B0048B202C0E00AEC4D4E4F78207B0070C2C5
:100F6B00EAB50A0040BCC0E0120FF3D0F0D0E0208D
:100F7B000204C4C0E0C4B202C0F0120C76D0F0D5AB
:100F8B00F0EB020CC71206E60D64530ECF580D356D
:100F9B004C0D31420ED34F0EDB440EDB490D4A4351
:100FAB000EE1550E0E460E6E450DD84710AE500D88
:100FBB00392D0D3D2E0D602B0D41230D5E2010970D
:100FCB002A0CF94800000D58E50AB4FF03750A0610
:100FDB00120C4AFC120C4AFD120C4AFE120C4AFF70
:100FEB009000C9020362790AA2D5200414300609C5
:100FFB00B910020404B9080104A2D520070250015C
:10100B00042003689203B509005034C0E07F203000
:10101B0004197F30A20372077206500F12104AC2D6
:10102B0003C207C206C2097F30800F300603E9C036
:10103B00E0120C8D300603D0E0F9D0E0B509CC30CE
:10104B0006177F30B9100C120C8D7F583005077FB7
:10105B00788003B90803120C8D3003057F2D020C29
:10106B008D7F202009F87F2B2007F322920380CF5E
:10107B007F00B40700500B24C9F582E43400F583DC
:10108B00E0FF22286E756C6C2900D202120C4A30DC
:10109B0002F8C202780930D50108F6020CF92D507E
:1010AB00434958120C4A2403B405004001E4901044
:1010BB00A993120C7E743A120C7ED20475090402A9
:0210CB000ECF46
:1002DB00E9D2E7C933E833F892D5EDD2E7CD33EC69
:0702EB0033FC5002B2D522E2
:1002F200EC30E7100FBF000C0EBE00080DBD00046D
:100302000BEB6014A2D5EB13FCED92E7FD2274FF18
:10031200FCFDFEFF22E480F8A2D574FF13FC7D8071
:03032200E480EF85
:10032500F920E73624F950037907E4F42402FBE5C4
:1003350082158270021583DBF6E024FB501BE96011
:1003450014E4F0E582158270021583E004F0B40A26
:0D03550008E4F0D9EE7401F00A22C2D522AE
:10036200ED33EC3392D5FA602AB4FF33EDC2E77B6A
:10037200FF60067A037987E4227A03799020D50414
:100382007A03798B224E614E002B494E46002D494D
:100392004E4600E47A08F0A3DAFC7B00740722C020
:1003A20083C082ECC0E0EDC0E0EEC0E0EFC0E0EA66
:1003B20075F010A4CAABF075F04DA42BFBE435F038
:1003C200FCEA2410FAEB34C5FBEC34D9FCEDC2E7AD
:1003D200FF75F056A4F42411C5F0F434C58FF0A4CF
:1003E2002AE5F03BE43CF020E714120537D0E0FFA9
:1003F200D0E0FED0E0FDD0E0FC12046A8014F404E8
:10040200120537D0E0FFD0E0FED0E0FDD0E0FC12D4
:10041200011ED082D083E0FAEDD2E7CD33EC332453
:1004220082FBE4C3CF33CFCE33CECD33CD33DBF338
:100432007B0775F00A846004F0A31B0AE5F0F0A3C1
:100442008FF0740AA4FFACF08EF0740AA42CFEACF8
:10045200F050010C8DF0740AA42CFDE435F0F0A3E9
:05046200DBDE7407223F
:1004670002031AEC5D046005E859047003020310E7
:100477001202DB580460F6EC4860F2EC7004FDFEF3
:10048700FF22C860DB2481C85009C3986002500668
:100497000203179850CAF582E9294B4A7005AB82C7
:1004A70002030675F0007C1A7880C3EF9BEE9AED85
:1004B70099400DC3EF9BFFEE9AFEED99FDE842F0E0
:1004C700DC23ACF0D0E0FFD0E0FED0E0FDAB822033
:1004D700E7101BEB60BAEC2CFCEF33FFEE33FEEDBD
:1004E70033FD0202F2E803F830E705C0F075F000CB
:1004F700EF2FFFEE33FEED33FD40B830E7C280AAA1
:100507003F8000004120000042C80000447A0000FC
:10051700461C400047C35000497424004B1896807E
:100527004CBEBC205A0E1BCA6753C21C749DC5AE75
:10053700FB60065407601C2323120565EB543860E3
:100547000912055112056012011EECF8EDF9EEFAD9
:10055700EFCB22EB12056080F1543803241C900581
:1005670007FE93FC0EEE93FD0EEE930ECE93FF2245
:030000000218CF14
:0C18CF00787FE4F6D8FD7581210219161F
:10057700BB010689828A83E0225002E722BBFE0282
:09058700E32289828A83E49322B5
:10059000BB010CE58229F582E5833AF583E0225020
:1005A00006E92582F8E622BBFE06E92582F8E2226A
:0D05B000E58229F582E5833AF583E4932284
:1005BD00BB010989828A83F8E028F022500327F7CE
:1005CD0022BBFE05F8E328F3228A838982F8E4939F
:0205DD002822D2
:1005DF00BB010FF8E58229F582E5833AF583E02820
:1005EF00F0225009C58229F8E58226F622BBFE09C2
:1005FF00C58229F8E22582F222F8EA2583F583E9FC
:03060F009328220B
:10061200BB010689828A83F0225002F722BBFE01C7
:02062200F322C1
:10062400F8BB010DE58229F582E5833AF583E8F00C
:10063400225006E92582C8F622BBFE05E92582C8B8
:02064400F222A0
:10064600C5F0F8A3E028F0C5F0F8E582158270023F
:060656001583E038F022DC
:10065C00BB010A89828A83F0E5F0A3F0225006F7E9
:0F066C0009A7F01922BBFE06F3E5F009F31922E6
:0E067B00C3E49FFFE49EFEE49DFDE49CFC2290
:0C068900ECF0A3EDF0A3EEF0A3EFF022E4
:10069500A8828583F0D083D0821206AC1206AC12F4
:1006A50006AC1206ACE473E493A3C583C5F0C58319
:1006B500C8C582C8F0A3C583C5F0C583C8C582C8AF
:0106C5002212
:1006C600F8E0FBA3A3E0F925F0F0E58215827002BD
:0706D6001583E0FA38F02261
:0906DD00EBF0A3EAF0A3E9F0221E
:1006E600D083D082F8E4937012740193700DA3A3A3
:1006F60093F8740193F5828883E4737402936860B7
:06070600EFA3A3A380DFB6
:101DA900EFB40A07740D121DB4740A309811A8997A
:101DB900B8130CC2983098FDA899C298B811F6309A
:071DC90099FDC299F5992272
:10070C00EF4E6012EF60010EEDBB010B89828A8304
:10071C00F0A3DFFCDEFA2289F05007F709DFFCA911
:0C072C00F022BBFEFCF309DFFCA9F02268
:1018DB00020738E493A3F8E493A34003F68001F2E4
:1018EB0008DFF48029E493A3F85407240CC8C3330E
:1018FB00C4540F4420C8834004F456800146F6DFDD
:10190B00E4800B0102040810204080901AD1E47E81
:10191B00019360BCA3FF543F30E509541FFEE493D1
:10192B00A360010ECF54C025E060A840B8E493A398
:10193B00FAE493A3F8E493A3C8C582C8CAC583CAC3
:10194B00F0A3C8C582C8CAC583CADFE9DEE780BE7B
:011B230000C1
:00000001FF
